{
  "transactions": [
    {
      "hash": "0x2d9dc3e4fa8c454b86150af16abfac7c8cc120f88ed9d6f3eabf804c836c6f89",
      "transactionType": "CREATE",
      "contractName": "SubdomainController",
      "contractAddress": "0x2ccbbeed213907b24085e486c799c358d31283ff",
      "function": null,
      "arguments": ["0xfa304291C0e3B45b57e6205bfD48B50c6f1C2CEB", "1000000000000000"],
      "transaction": {
        "from": "0x3a872f8fed4421e7d5be5c98ab5ea0e0245169a0",
        "gas": "0xc81cb",
        "value": "0x0",
        "input": "0x608034607757601f610a2738819003918201601f19168301916001600160401b03831184841017607b57808492604094855283398101031260775780516001600160a01b0381169190829003607757602001515f55600180546001600160a01b03191691909117905560405161099790816100908239f35b5f80fd5b634e487b7160e01b5f52604160045260245ffdfe60806040526004361015610011575f80fd5b5f3560e01c806301ffc9a7146100645780634d4bd71b1461005f5780638de0a2ed1461005a578063a035b1fe146100555763f43c313a14610050575f80fd5b6102da565b6102be565b610253565b61015a565b346100b85760203660031901126100b85760043563ffffffff60e01b81168091036100b8576301ffc9a760e01b81149081156100a7575b50151560805260206080f35b6379dc93d760e01b1490508161009b565b5f80fd5b634e487b7160e01b5f52604160045260245ffd5b90601f8019910116810190811067ffffffffffffffff8211176100f257604052565b6100bc565b6040519061010660a0836100d0565b565b67ffffffffffffffff81116100f257601f01601f191660200190565b92919261013082610108565b9161013e60405193846100d0565b8294818452818301116100b8578281602093845f960137010152565b346100b85760203660031901126100b85760043567ffffffffffffffff81116100b857366023820112156100b85761019f6101de913690602481600401359101610124565b6040516101cb6020828180820195805191829101875e81015f838201520301601f1981018352826100d0565b5190206040519081529081906020820190565b0390f35b805180835260209291819084018484015e5f828201840152601f01601f1916010190565b60c0608061025093602084528051602085015260208101511515604085015260018060a01b03604082015116606085015260608101518285015201519160a08082015201906101e2565b90565b346100b85760403660031901126100b85760043567ffffffffffffffff81116100b857366023820112156100b85780600401359067ffffffffffffffff82116100b85736602483830101116100b8576101de9160246102b2920161050f565b60405191829182610206565b346100b8575f3660031901126100b85760205f54604051908152f35b60203660031901126100b85760043567ffffffffffffffff81116100b8578060040160c060031983360301126100b8576103178161039d926105e7565b61035a61032e5f610329368587610124565b610725565b9161032961033c82866107fa565b9461035061034b368584610124565b61084e565b9390503691610124565b60015490929060209061037d906001600160a01b03165b6001600160a01b031690565b92604051809681926331a9108f60e11b8352600483019190602083019252565b0381855afa93841561045d576020946103c7915f91610462575b506001600160a01b03161561061a565b6103d45f54341015610666565b5f6103e1602487016106a7565b9361042361040660446103f660848b016106a7565b99013567ffffffffffffffff1690565b6040516309306bd160e21b815298899788968795600487016106c0565b03925af1801561045d5761043357005b6104549060203d602011610456575b61044c81836100d0565b8101906106b1565b005b503d610442565b6104f0565b6104829150863d8811610488575b61047a81836100d0565b8101906104db565b5f6103b7565b503d610470565b6040519060a0820182811067ffffffffffffffff8211176100f25760405260606080835f81525f60208201525f60408201525f838201520152565b6001600160a01b038116036100b857565b908160209103126100b85751610250816104ca565b6040513d5f823e3d90fd5b6040519061050a6020836100d0565b5f8252565b9060206105669161051e61048f565b506105455f61032981549661053d61037160015460018060a01b031690565b943691610124565b9060405180809581946331a9108f60e11b8352600483019190602083019252565b03915afa801561045d57610598915f916105c8575b506105846100f7565b9283526001600160a01b0316156020830152565b73eeeeeeeeeeeeeeeeeeeeeeeeeeeeeeeeeeeeeeee60408201525f60608201526105c06104fb565b608082015290565b6105e1915060203d6020116104885761047a81836100d0565b5f61057b565b903590601e19813603018212156100b8570180359067ffffffffffffffff82116100b8576020019181360383136100b857565b1561062157565b60405162461bcd60e51b815260206004820152601960248201527f646f6d61696e20616c72656164792072656769737465726564000000000000006044820152606490fd5b1561066d57565b60405162461bcd60e51b8152602060048201526012602482015271696e73756666696369656e742066756e647360701b6044820152606490fd5b35610250816104ca565b908160209103126100b8575190565b936106e767ffffffffffffffff9360c095989793875260e0602088015260e08701906101e2565b6001600160a01b039788166040870152961660608501525f6080850181905260a085015216910152565b634e487b7160e01b5f52601160045260245ffd5b61072f82826108f3565b9091821561076857610742929350610725565b6040805160208101928352808201939093528252906107626060826100d0565b51902090565b515f198101939250831190506107c65703610781575f90565b60405162461bcd60e51b815260206004820152601d60248201527f6e616d65686173683a204a756e6b20617420656e64206f66206e616d650000006044820152606490fd5b610711565b634e487b7160e01b5f52603260045260245ffd5b90600182018092116107c657565b919082018092116107c657565b811561084957803560f81c91821561083257600183018084116107c657806001116100b857116100b857610250916001369201610124565b5050506040516108436020826100d0565b5f815290565b6107cb565b908151156108ae578151156108495760208201516108709060f81c5b60ff1690565b9182801561089f5761089261089a916102509361088c5f6107df565b90610947565b935b5f6107ed565b6107df565b505061025061089a5f93610894565b60405162461bcd60e51b815260206004820152601e60248201527f726561644c6162656c3a20496e646578206f7574206f6620626f756e647300006044820152606490fd5b91909180518310156108ae57805183101561084957602081840101516102509161089a916109239060f81c61086a565b9081801561093e576109389161088c886107df565b946107ed565b50505f946107ed565b908281018082116107c6578251106100b85701602001209056fea264697066735822122010772106f514d914b96754c0cb22426e1825d836adb2cb01b80cb3696c916d7e64736f6c634300081c0033000000000000000000000000fa304291c0e3b45b57e6205bfd48b50c6f1c2ceb00000000000000000000000000000000000000000000000000038d7ea4c68000",
        "nonce": "0x15",
        "chainId": "0xaa37dc"
      },
      "additionalContracts": [],
      "isFixedGasLimit": false
    },
    {
      "hash": "0x16e1b359bc4706e2682152166894a9195beccc26325a9b37d41cd1537976dab5",
      "transactionType": "CALL",
      "contractName": null,
      "contractAddress": "0xfa304291c0e3b45b57e6205bfd48b50c6f1c2ceb",
      "function": "setApprovalForAll(address,bool)",
      "arguments": ["0x2CcbbeeD213907B24085e486c799c358d31283ff", "true"],
      "transaction": {
        "from": "0x3a872f8fed4421e7d5be5c98ab5ea0e0245169a0",
        "to": "0xfa304291c0e3b45b57e6205bfd48b50c6f1c2ceb",
        "gas": "0xfc07",
        "value": "0x0",
        "input": "0xa22cb4650000000000000000000000002ccbbeed213907b24085e486c799c358d31283ff0000000000000000000000000000000000000000000000000000000000000001",
        "nonce": "0x16",
        "chainId": "0xaa37dc"
      },
      "additionalContracts": [],
      "isFixedGasLimit": false
    }
  ],
  "receipts": [
    {
      "status": "0x1",
      "cumulativeGasUsed": "0x2a9874",
      "logs": [],
      "logsBloom": "0x00000000000000000000000000000000000000000000000000000000000000000000000000000000000000000000000000000000000000000000000000000000000000000000000000000000000000000000000000000000000000000000000000000000000000000000000000000000000000000000000000000000000000000000000000000000000000000000000000000000000000000000000000000000000000000000000000000000000000000000000000000000000000000000000000000000000000000000000000000000000000000000000000000000000000000000000000000000000000000000000000000000000000000000000000000000",
      "type": "0x2",
      "transactionHash": "0x2d9dc3e4fa8c454b86150af16abfac7c8cc120f88ed9d6f3eabf804c836c6f89",
      "transactionIndex": "0xf",
      "blockHash": "0x8ea5d7d82c017d6ff785e93a241d9aba3a4427960b0c6f3502341d35627a09f3",
      "blockNumber": "0x18a049e",
      "gasUsed": "0x99eeb",
      "effectiveGasPrice": "0xf43a6",
      "from": "0x3a872f8fed4421e7d5be5c98ab5ea0e0245169a0",
      "to": null,
      "contractAddress": "0x2ccbbeed213907b24085e486c799c358d31283ff",
      "l1BaseFeeScalar": "0x1db0",
      "l1BlobBaseFee": "0x1",
      "l1BlobBaseFeeScalar": "0xd2730",
      "l1Fee": "0xad4a1da",
      "l1GasPrice": "0xcee17",
      "l1GasUsed": "0x6e36"
    },
    {
      "status": "0x1",
      "cumulativeGasUsed": "0x2b4eeb",
      "logs": [
        {
          "address": "0xfa304291c0e3b45b57e6205bfd48b50c6f1c2ceb",
          "topics": [
            "0x17307eab39ab6107e8899845ad3d59bd9653f200f220920489ca2b5937696c31",
            "0x0000000000000000000000003a872f8fed4421e7d5be5c98ab5ea0e0245169a0",
            "0x0000000000000000000000002ccbbeed213907b24085e486c799c358d31283ff"
          ],
          "data": "0x0000000000000000000000000000000000000000000000000000000000000001",
          "blockHash": "0x8ea5d7d82c017d6ff785e93a241d9aba3a4427960b0c6f3502341d35627a09f3",
          "blockNumber": "0x18a049e",
          "transactionHash": "0x16e1b359bc4706e2682152166894a9195beccc26325a9b37d41cd1537976dab5",
          "transactionIndex": "0x10",
          "logIndex": "0x12",
          "removed": false
        }
      ],
      "logsBloom": "0x00080000000000000000000000000000001000000000000000020000000000000000000000000000000000000000000000000000000000000000000000000000400000000000000000000000000000000000000000000000000000000000000002000000000000000000000000000000000000000000000000200080000000000000000000000000000000000000000000000000000000000000000000000000000000000000000000000000008000000000000000000000000000000000000000000000000000000000000000000400000000000000000000000000000000000000200800000000000000000000800000000000000000000000000000000000",
      "type": "0x2",
      "transactionHash": "0x16e1b359bc4706e2682152166894a9195beccc26325a9b37d41cd1537976dab5",
      "transactionIndex": "0x10",
      "blockHash": "0x8ea5d7d82c017d6ff785e93a241d9aba3a4427960b0c6f3502341d35627a09f3",
      "blockNumber": "0x18a049e",
      "gasUsed": "0xb677",
      "effectiveGasPrice": "0xf43a6",
      "from": "0x3a872f8fed4421e7d5be5c98ab5ea0e0245169a0",
      "to": "0xfa304291c0e3b45b57e6205bfd48b50c6f1c2ceb",
      "contractAddress": null,
      "l1BaseFeeScalar": "0x1db0",
      "l1BlobBaseFee": "0x1",
      "l1BlobBaseFeeScalar": "0xd2730",
      "l1Fee": "0x9d3b07",
      "l1GasPrice": "0xcee17",
      "l1GasUsed": "0x640"
    }
  ],
  "libraries": [],
  "pending": [],
  "returns": {},
  "timestamp": 1743447299,
  "chain": 11155420,
  "commit": "5c21e22"
}
