{
  "transactions": [
    {
      "hash": "0x6e85dcd573ad7f240b49affb934b8f76496ac367ede66eedad1ccad5ea4e63b0",
      "transactionType": "CREATE",
      "contractName": "ReverseRegistrar",
      "contractAddress": "0xe7f1725e7734ce288f8367e1bb143e90bb3f0512",
      "function": null,
      "arguments": ["0x5FbDB2315678afecb367f032d93F642f64180aa3"],
      "transaction": {
        "from": "0xf39fd6e51aad88f6f4ce6ab8827279cfffb92266",
        "gas": "0xeb16c",
        "value": "0x0",
        "input": "0x60a0604090808252346101995780610da2803803809161001f828561019e565b83396020928391810103126101995751906001600160a01b038083168084036101995782600094602486543360018060a01b0319821617885588519485938492883391167f8be0079c531659141344cd1fd0a4f28419497f9722a3daafe3b4186f6b6457e08c80a36080526302571be360e01b82527f91d1777781884d03a6757a803996e38de2a42967fb37eeaca72729271025a9e260048301525afa90811561018f578491610155575b5016806100f7575b8351610bca90816101d882396080518181816101a501528181610850015261095e0152f35b8183916024865180948193630f41a04d60e11b83523360048401525af1801561014b57156100d257813d8311610144575b610132818361019e565b810103126101415780806100d2565b80fd5b503d610128565b84513d85823e3d90fd5b90508281813d8311610188575b61016c818361019e565b810103126101845751818116810361018457386100ca565b8380fd5b503d610162565b85513d86823e3d90fd5b600080fd5b601f909101601f19168101906001600160401b038211908210176101c157604052565b634e487b7160e01b600052604160045260246000fdfe6080604052600436101561001257600080fd5b60003560e01c80630f5a5466146100f75780631e83409a146100f25780633f15457f146100ed57806365669631146100e8578063715018a6146100e35780637a806d6b146100de578063828eab0e146100d95780638da5cb5b146100d4578063bffbe61c146100cf578063c47f0027146100ca578063c66485b2146100c5578063da8c229e146100c0578063e0dba60f146100bb5763f2fde38b146100b657600080fd5b610651565b6105cc565b610580565b6104b5565b61046c565b6103ec565b6103c3565b61039a565b610336565b610214565b6101d4565b61018f565b61014f565b610112565b6001600160a01b0381160361010d57565b600080fd5b3461010d57604036600319011261010d576020610147600435610134816100fc565b60243590610141826100fc565b336107d4565b604051908152f35b3461010d57602036600319011261010d576020610147600435610171816100fc565b6002546001600160a01b031690336107d4565b600091031261010d57565b3461010d57600036600319011261010d576040517f00000000000000000000000000000000000000000000000000000000000000006001600160a01b03168152602090f35b3461010d57606036600319011261010d5760206101476004356101f6816100fc565b602435610202816100fc565b6044359161020f836100fc565b6107d4565b3461010d5760008060031936011261026f5761022e610b3c565b80546001600160a01b03198116825581906001600160a01b03167f8be0079c531659141344cd1fd0a4f28419497f9722a3daafe3b4186f6b6457e08280a380f35b80fd5b634e487b7160e01b600052604160045260246000fd5b67ffffffffffffffff811161029c57604052565b610272565b6060810190811067ffffffffffffffff82111761029c57604052565b90601f8019910116810190811067ffffffffffffffff82111761029c57604052565b81601f8201121561010d5780359067ffffffffffffffff821161029c5760405192610314601f8401601f1916602001856102bd565b8284526020838301011161010d57816000926020809301838601378301015290565b3461010d57608036600319011261010d57600435610353816100fc565b60243590610360826100fc565b6044359061036d826100fc565b6064359167ffffffffffffffff831161010d576020936103946101479436906004016102df565b926109de565b3461010d57600036600319011261010d576002546040516001600160a01b039091168152602090f35b3461010d57600036600319011261010d576000546040516001600160a01b039091168152602090f35b3461010d57602036600319011261010d5761041160043561040c816100fc565b610aee565b6040519060208201907f91d1777781884d03a6757a803996e38de2a42967fb37eeaca72729271025a9e28252604083015260408252606082019082821067ffffffffffffffff83111761029c57602092826040525190208152f35b3461010d57602036600319011261010d5760043567ffffffffffffffff811161010d576101476104a260209236906004016102df565b6002546001600160a01b031633806109de565b3461010d57602036600319011261010d576004356104d2816100fc565b6104da610b3c565b6001600160a01b0316801561052257600280546001600160a01b031916821790557feae17a84d9eb83d8c8eb317f9e7d64857bc363fa51674d996c023f4340c577cf600080a2005b60405162461bcd60e51b815260206004820152603060248201527f526576657273655265676973747261723a205265736f6c76657220616464726560448201526f07373206d757374206e6f7420626520360841b6064820152608490fd5b3461010d57602036600319011261010d5760043561059d816100fc565b60018060a01b03166000526001602052602060ff604060002054166040519015158152f35b8015150361010d57565b3461010d57604036600319011261010d576004356105e9816100fc565b7f4c97694570a07277810af7e5669ffd5f6a2d6b74b6e9a274b8b870fd5114cf87602060243592610619846105c2565b610621610b3c565b60018060a01b031692836000526001825260406000209015159060ff1981541660ff8316179055604051908152a2005b3461010d57602036600319011261010d5760043561066e816100fc565b610676610b3c565b6001600160a01b0390811680156106c457600080546001600160a01b03198116831782559092167f8be0079c531659141344cd1fd0a4f28419497f9722a3daafe3b4186f6b6457e08380a380f35b60405162461bcd60e51b815260206004820152602660248201527f4f776e61626c653a206e6577206f776e657220697320746865207a65726f206160448201526564647265737360d01b6064820152608490fd5b9081602091031261010d575161072d816105c2565b90565b6040513d6000823e3d90fd5b1561074357565b60405162461bcd60e51b815260206004820152605b60248201527f526576657273655265676973747261723a2043616c6c6572206973206e6f742060448201527f6120636f6e74726f6c6c6572206f7220617574686f726973656420627920616460648201527f6472657373206f7220746865206164647265737320697473656c660000000000608482015260a490fd5b6001600160a01b03929190838116331480156108be575b8015610820575b61072d9450801561080c575b6108079061073c565b6108d7565b5061080761081982610a71565b90506107fe565b5060405163e985e9c560e01b81526001600160a01b038216600482015233602482015293602090859060449082907f0000000000000000000000000000000000000000000000000000000000000000165afa80156108b95761072d9460009161088a575b506107f2565b6108ac915060203d6020116108b2575b6108a481836102bd565b810190610718565b38610884565b503d61089a565b610730565b503360009081526001602052604090205460ff166107eb565b6108e081610aee565b9160405190602082017f91d1777781884d03a6757a803996e38de2a42967fb37eeaca72729271025a9e29283825285604082015260408152610921816102a1565b5190209460018060a01b0391604051958784600097167f6ada868dd3058cf77a48a74489fd7963688e5464b2b0fa957ace976243270e928880a3837f00000000000000000000000000000000000000000000000000000000000000001694853b156109da576305ef2c7f60e41b8852600488015260248701528216604486015216606484015260848301829052829060a490829084905af180156108b9576109c7575090565b806109d461072d92610288565b80610184565b8680fd5b916109eb918194936107d4565b916001600160a01b0316803b1561010d576040518092637737221360e01b82528460048301526040602483015280519081604484015260005b828110610a5957505091816000606482868383819984010152601f801991011681010301925af180156108b9576109c7575090565b60208282018101516064888401015286945001610a24565b604051638da5cb5b60e01b8152906001600160a01b03906020908390600490829085165afa60009281610ab1575b50610aab575050600090565b16331490565b9092506020813d602011610ae6575b81610acd602093836102bd565b8101031261010d5751610adf816100fc565b9138610a9f565b3d9150610ac0565b6028805b610b00575050602860002090565b6f181899199a1a9b1b9c1cb0b131b232b360811b91600f9182821684901a600019820153600119019283928260041c161a825360081c91610af2565b6000546001600160a01b03163303610b5057565b606460405162461bcd60e51b815260206004820152602060248201527f4f776e61626c653a2063616c6c6572206973206e6f7420746865206f776e65726044820152fdfea26469706673582212202d586d9ac0c99c70ed66be4477e31c1d12a8d82d5f8ff917679c433ad5d8131464736f6c634300081900330000000000000000000000005fbdb2315678afecb367f032d93f642f64180aa3",
        "nonce": "0x1",
        "chainId": "0x7a69"
      },
      "additionalContracts": [],
      "isFixedGasLimit": false
    },
    {
      "hash": "0x6ac7686f85da241afd81d9aaff51bebe1322f04a2010f9e261f9171d97a74a8d",
      "transactionType": "CALL",
      "contractName": null,
      "contractAddress": "0x5fbdb2315678afecb367f032d93f642f64180aa3",
      "function": "setSubnodeOwner(bytes32,bytes32,address)",
      "arguments": [
        "0x0000000000000000000000000000000000000000000000000000000000000000",
        "0xdec08c9dbbdd0890e300eb5062089b2d4b1c40e3673bbccb5423f7b37dcf9a9c",
        "0xf39Fd6e51aad88F6F4ce6aB8827279cffFb92266"
      ],
      "transaction": {
        "from": "0xf39fd6e51aad88f6f4ce6ab8827279cfffb92266",
        "to": "0x5fbdb2315678afecb367f032d93f642f64180aa3",
        "gas": "0x10763",
        "value": "0x0",
        "input": "0x06ab59230000000000000000000000000000000000000000000000000000000000000000dec08c9dbbdd0890e300eb5062089b2d4b1c40e3673bbccb5423f7b37dcf9a9c000000000000000000000000f39fd6e51aad88f6f4ce6ab8827279cfffb92266",
        "nonce": "0x2",
        "chainId": "0x7a69"
      },
      "additionalContracts": [],
      "isFixedGasLimit": false
    },
    {
      "hash": "0xbed22651d4263e549f55b64f057e27a659d8b9a890f915c92e10100f3fff7903",
      "transactionType": "CALL",
      "contractName": null,
      "contractAddress": "0x5fbdb2315678afecb367f032d93f642f64180aa3",
      "function": "setSubnodeOwner(bytes32,bytes32,address)",
      "arguments": [
        "0xa097f6721ce401e757d1223a763fef49b8b5f90bb18567ddb86fd205dff71d34",
        "0xe5e14487b78f85faa6e1808e89246cf57dd34831548ff2e6097380d98db2504a",
        "0xe7f1725E7734CE288F8367e1Bb143E90bb3F0512"
      ],
      "transaction": {
        "from": "0xf39fd6e51aad88f6f4ce6ab8827279cfffb92266",
        "to": "0x5fbdb2315678afecb367f032d93f642f64180aa3",
        "gas": "0x10985",
        "value": "0x0",
        "input": "0x06ab5923a097f6721ce401e757d1223a763fef49b8b5f90bb18567ddb86fd205dff71d34e5e14487b78f85faa6e1808e89246cf57dd34831548ff2e6097380d98db2504a000000000000000000000000e7f1725e7734ce288f8367e1bb143e90bb3f0512",
        "nonce": "0x3",
        "chainId": "0x7a69"
      },
      "additionalContracts": [],
      "isFixedGasLimit": false
    }
  ],
  "receipts": [
    {
      "status": "0x1",
      "cumulativeGasUsed": "0xb4e45",
      "logs": [
        {
          "address": "0xe7f1725e7734ce288f8367e1bb143e90bb3f0512",
          "topics": [
            "0x8be0079c531659141344cd1fd0a4f28419497f9722a3daafe3b4186f6b6457e0",
            "0x0000000000000000000000000000000000000000000000000000000000000000",
            "0x000000000000000000000000f39fd6e51aad88f6f4ce6ab8827279cfffb92266"
          ],
          "data": "0x",
          "blockHash": "0xef112039f525b65867720575dd29b7e6429e6f7a7316dc01f63b328abd40ae6e",
          "blockNumber": "0x2",
          "blockTimestamp": "0x66f1e042",
          "transactionHash": "0x6e85dcd573ad7f240b49affb934b8f76496ac367ede66eedad1ccad5ea4e63b0",
          "transactionIndex": "0x0",
          "logIndex": "0x0",
          "removed": false
        }
      ],
      "logsBloom": "0x00000000000000000000000000000000000000000000000000800000000000000000000000000000000000000000000010000000000000000000000000000000000000000000000000000000000000000001000000000000000000000000000000000000020000000000000100000800000000000000000000000000000000400000000000000000000000000000000000000000000000000000000000000000000000000000000000000000000000000000000000000000000000000000000000000000000000200000000000001000000000002000000000000000000020000000000000000000000000000000000000000000000000800000000000000000",
      "type": "0x2",
      "transactionHash": "0x6e85dcd573ad7f240b49affb934b8f76496ac367ede66eedad1ccad5ea4e63b0",
      "transactionIndex": "0x0",
      "blockHash": "0xef112039f525b65867720575dd29b7e6429e6f7a7316dc01f63b328abd40ae6e",
      "blockNumber": "0x2",
      "gasUsed": "0xb4e45",
      "effectiveGasPrice": "0x346c4061",
      "blobGasPrice": "0x1",
      "from": "0xf39fd6e51aad88f6f4ce6ab8827279cfffb92266",
      "to": null,
      "contractAddress": "0xe7f1725e7734ce288f8367e1bb143e90bb3f0512",
      "root": "0xdc6840862b497e71416f6d3975f3e2ba605028c8a9960da3c433273fde166aa6"
    },
    {
      "status": "0x1",
      "cumulativeGasUsed": "0xbeb0",
      "logs": [
        {
          "address": "0x5fbdb2315678afecb367f032d93f642f64180aa3",
          "topics": [
            "0xce0457fe73731f824cc272376169235128c118b49d344817417c6d108d155e82",
            "0x0000000000000000000000000000000000000000000000000000000000000000",
            "0xdec08c9dbbdd0890e300eb5062089b2d4b1c40e3673bbccb5423f7b37dcf9a9c"
          ],
          "data": "0x000000000000000000000000f39fd6e51aad88f6f4ce6ab8827279cfffb92266",
          "blockHash": "0xa4a52a6ebe463e8d51d8a4262f3dc3b00ae138538cc78275743e0a6cda061aa7",
          "blockNumber": "0x3",
          "blockTimestamp": "0x66f1e043",
          "transactionHash": "0x6ac7686f85da241afd81d9aaff51bebe1322f04a2010f9e261f9171d97a74a8d",
          "transactionIndex": "0x0",
          "logIndex": "0x0",
          "removed": false
        }
      ],
      "logsBloom": "0x00000000000000000000000000000000000000000000000000000000000000400000000000000000000000000000000000000000000010000000000000000000000000000000000000000000000000000000000000000000000000000000000000000040020000000000000000000800000000000000000000000000000000000000000000000002000000000000000000000000000000000000000200000000000000000000000000000000000000000000000000000000000000040000000000000040000000000000000000004000000000000000000000000000000020000000000000000000000000000000000000000000000000000000000000000400",
      "type": "0x2",
      "transactionHash": "0x6ac7686f85da241afd81d9aaff51bebe1322f04a2010f9e261f9171d97a74a8d",
      "transactionIndex": "0x0",
      "blockHash": "0xa4a52a6ebe463e8d51d8a4262f3dc3b00ae138538cc78275743e0a6cda061aa7",
      "blockNumber": "0x3",
      "gasUsed": "0xbeb0",
      "effectiveGasPrice": "0x2e319526",
      "blobGasPrice": "0x1",
      "from": "0xf39fd6e51aad88f6f4ce6ab8827279cfffb92266",
      "to": "0x5fbdb2315678afecb367f032d93f642f64180aa3",
      "contractAddress": null,
      "root": "0x7bebfbb3291115dc3e03b8a8e43065fe250a6b8aab74d2da37bd0c34c08a9259"
    },
    {
      "status": "0x1",
      "cumulativeGasUsed": "0x17eec",
      "logs": [
        {
          "address": "0x5fbdb2315678afecb367f032d93f642f64180aa3",
          "topics": [
            "0xce0457fe73731f824cc272376169235128c118b49d344817417c6d108d155e82",
            "0xa097f6721ce401e757d1223a763fef49b8b5f90bb18567ddb86fd205dff71d34",
            "0xe5e14487b78f85faa6e1808e89246cf57dd34831548ff2e6097380d98db2504a"
          ],
          "data": "0x000000000000000000000000e7f1725e7734ce288f8367e1bb143e90bb3f0512",
          "blockHash": "0xa4a52a6ebe463e8d51d8a4262f3dc3b00ae138538cc78275743e0a6cda061aa7",
          "blockNumber": "0x3",
          "blockTimestamp": "0x66f1e043",
          "transactionHash": "0xbed22651d4263e549f55b64f057e27a659d8b9a890f915c92e10100f3fff7903",
          "transactionIndex": "0x1",
          "logIndex": "0x1",
          "removed": false
        }
      ],
      "logsBloom": "0x00000000000000000000000000000000000000000000000000800000000000000000000000000000000000000000000000000000000010000000000000000000000000000000000000000000000000000000000000000000000000000000000000000040000800000000000000000000000000000001000000000000000000000000000000000000000000000000000000000000000000000000000200000000000000000000000000000000000000000000000000000000000000040000000000000040000000000000000000004000001000000000000000000000000000000000000000000040000000000000000000000000000000000000000010000000",
      "type": "0x2",
      "transactionHash": "0xbed22651d4263e549f55b64f057e27a659d8b9a890f915c92e10100f3fff7903",
      "transactionIndex": "0x1",
      "blockHash": "0xa4a52a6ebe463e8d51d8a4262f3dc3b00ae138538cc78275743e0a6cda061aa7",
      "blockNumber": "0x3",
      "gasUsed": "0xc03c",
      "effectiveGasPrice": "0x2e319526",
      "blobGasPrice": "0x1",
      "from": "0xf39fd6e51aad88f6f4ce6ab8827279cfffb92266",
      "to": "0x5fbdb2315678afecb367f032d93f642f64180aa3",
      "contractAddress": null,
      "root": "0x7bebfbb3291115dc3e03b8a8e43065fe250a6b8aab74d2da37bd0c34c08a9259"
    }
  ],
  "libraries": [],
  "pending": [],
  "returns": {},
  "timestamp": 1727127618,
  "chain": 31337,
  "commit": "f7530f4"
}
